:020000040800F2
:1000000028B80020B10F0008BF020008C102000894
:10001000C5020008C9020008CD0200080000000067
:10002000000000000000000000000000D1020008F5
:10003000D302000800000000D5020008D702000823
:10004000CB0F0008CB0F0008CB0F0008CB0F000828
:10005000CB0F0008CB0F0008CB0F0008CB0F000818
:10006000CB0F0008CB0F0008CB0F0008CB0F000808
:10007000CB0F0008CB0F0008CB0F0008CB0F0008F8
:10008000CB0F0008CB0F0008CB0F0008CB0F0008E8
:10009000CB0F0008CB0F0008CB0F0008CB0F0008D8
:1000A000CB0F0008CB0F0008CB0F0008CB0F0008C8
:1000B000CB0F0008CB0F0008CB0F0008CB0F0008B8
:1000C000CB0F0008CB0F0008CB0F0008CB0F0008A8
:1000D000CB0F0008270F0008CB0F0008CB0F00083C
:1000E000CB0F0008CB0F0008CB0F0008CB0F000888
:1000F000CB0F0008CB0F0008CB0F0008CB0F000878
:10010000CB0F0008CB0F0008CB0F0008CB0F000867
:10011000CB0F0008CB0F0008CB0F0008CB0F000857
:10012000CB0F0008CB0F0008CB0F0008CB0F000847
:10013000CB0F0008CB0F0008CB0F0008CB0F000837
:10014000CB0F0008CB0F0008CB0F0008CB0F000827
:10015000CB0F0008CB0F0008CB0F0008CB0F000817
:10016000CB0F0008CB0F0008CB0F0008CB0F000807
:10017000CB0F0008CB0F0008CB0F0008CB0F0008F7
:10018000CB0F0008CB0F000800F002F800F069F870
:100190000AA090E8000C82448344AAF10107DA45E2
:1001A00001D100F05EF8AFF2090EBAE80F0013F0CB
:1001B000010F18BFFB1A43F0010318477C480000E9
:1001C0009C4800000A444FF0000C10F8013B13F06B
:1001D000070408BF10F8014B1D1108BF10F8015BA0
:1001E000641E05D010F8016B641E01F8016BF9D193
:1001F00013F0080F1EBF10F8014BAD1C0C1B09D1EA
:100200006D1E58BF01F801CBFAD505E014F8016B5B
:1002100001F8016B6D1EF9D59142D6D370470000ED
:100220000023002400250026103A28BF78C1FBD8FF
:10023000520728BF30C148BF0B607047662902F0E3
:10024000CE87002070471FB502F0BFFF02F0AEF866
:1002500004000020002102F0EBFDE0601FBD10B59E
:1002600010BD02F09FF91146FFF7EDFF00F008F80E
:1002700002F0BDF903B4FFF7F2FF03BC00F0F4FD98
:1002800010B54FF4A06000F0B3FEA82000F06AFDA6
:100290004FF4E13000F0F5FD00F00BFB00240AE024
:1002A0000821204600F0E4FC00F05DF94FF4FA70FC
:1002B00000F0BAFD641C082CF2DD002010BD704770
:1002C00000BFFEE700BFFEE700BFFEE700BFFEE79E
:1002D00070477047704770470CB500200190009040
:1002E0007648006840F480307449086000BF734865
:1002F000006800F4003000900198401C01900098C4
:1003000018B90198B0F5A04FF1D16C48006800F41D
:10031000003010B10120009001E000200090009812
:10032000012846D165484030006840F0805063495C
:10033000403108606248006840F44040604908600D
:100340005E48083000685D4908310860084600686A
:1003500040F4004008600846006840F4A05008607F
:100360005848091F0860081F006840F08070091F86
:10037000086000BF5148006800F000700028F9D004
:1003800040F20570504908604C480830006820F081
:1003900003004A49083108600846006840F002003E
:1003A000086000BF45480830006800F00C000828CD
:1003B000F8D10CBD10B54548006840F470004349C1
:1003C00008603E48006840F001003C490860002099
:1003D0003A4908310860394800683D4908403749C2
:1003E00008603C48091D0860081F006820F4802050
:1003F000091F0860002031490C310860FFF76CFFCD
:100400004FF0006031498039086010BD70B50020A0
:100410000022022300240221284D08352D6805F012
:100420000C0020B1042806D0082834D107E02A4D5A
:100430002A4E356033E02A4D284E35602FE01F4D9F
:100440002D1D2D68C5F380541C4D2D1D2D6805F004
:100450003F0154B1224DB5FBF1F5184E361D3668FB
:10046000C6F3881605FB06F209E01B4DB5FBF1F556
:10047000124E361D3668C6F3881605FB06F20F4D80
:100480002D1D2D68C5F301456D1C6B00B2FBF3F506
:10049000124E356003E0104D104E356000BF00BFB6
:1004A000064D08352D68C5F303150E4E705D0B4DD6
:1004B0002D68C540094E356070BD0000003802400F
:1004C0000070004008544007003C024088ED00E006
:1004D000FFFFF6FE103000240024F400000000208E
:1004E00000127A000400002070B5044604F00F05E5
:1004F000FE48006820F47070FC49086008460068F7
:1005000040EA851008604FF6FF7000EA8511F74851
:10051000143800F0E8FEC4F30010F5490860C4F395
:100520004010F449C1F89802C4F38010F249086001
:10053000E009F249C1F8980270BD70B505460C4655
:100540002846FFF7D1FFEE4804600020E949C1F8D2
:100550009C02EC49086001200860EB490860EB4907
:10056000C1F8980270BD70B500241CE004F1B00120
:10057000C8B20021FFF7E1FF00210846FFF7DDFFC9
:1005800000211020FFF7D9FF002508E0E04901EB2A
:10059000C501085D0121FFF7D0FF681CC5B2802DA1
:1005A000F4DB601CC4B2082CE0DB70BD10B5002188
:1005B0008D20FFF7C2FF00211420FFF7BEFF0021AE
:1005C000AF20FFF7BAFF10BD10B500218D20FFF757
:1005D000B4FF00211020FFF7B0FF0021AE20FFF78D
:1005E000ACFF10BD70B500240CE0002506E0002033
:1005F000C74901EBC5010855681CC5B2802DF6DB63
:10060000601CC4B2082CF0DBFFF7ADFF70BDF0B585
:10061000144600267F2801DC3F2900DDF0BD0B4693
:10062000CF1701EB5777FF10C7F10707FAB2CF17C3
:1006300001EB5777FF10A1EBC707FDB2C5F1070724
:100640000123BB40DEB24CB1B14B03EBC0039B5C5A
:100650003343AF4F07EBC007BB5408E0AC4B03EB91
:10066000C0039B5CB343AA4F07EBC007BB5400BF5A
:10067000D4E72DE9F04706460F4690469946DDF847
:1006800020A034460CE03D4606E05246294620466E
:10069000FFF7BDFF681CC5B24D45F6DD601CC4B256
:1006A0004445F0DDFFF75FFFBDE8F0872DE9F84F27
:1006B00080460F4616461C46BA462046E31704EB12
:1006C0005373DB1021464FEAE47C04EB5C7C4FEA79
:1006D000EC0CA4EBCC0CBCF1000F02D04FF0010CE1
:1006E00001E04FF0000C6344224604EBD27C4FEA59
:1006F0006C0C03FB0CF303F0FF0BA6F12000C6B259
:1007000000254EE00C2C07D106EB4600814901EB99
:100710008000405D009013E0102C05D17E4800EB76
:100720000610405D00900BE0182C07D106EBC600C8
:100730007A4901EB8000405D009001E0BDE8F88F50
:100740004FF0000927E0009800F0800028B13946FA
:1007500040460A9AFFF75BFF09E00A9808B90120B2
:1007600000E00020024639464046FFF750FF00985F
:100770004006000E0090781CC7B2A7EB0A00A0420A
:1007800005D1574608F1010000F0FF0806E009F125
:10079000010000F0FF09B9F1080FD4DB00BF681CAD
:1007A000C5B25D45AEDB00BFC8E710B5024601200B
:1007B00000E050430B00A1F10104E1B2F9D110BDFA
:1007C0002DE9FF4F81B0074691461E460E9D4FF022
:1007D000000A002439E0301B401EC1B20A20FFF796
:1007E000E4FFB9FBF0F00A21B0FBF1F201FB1208C3
:1007F000BAF1000F16D1701EA04213DDB8F1000F40
:100800000ED10120AB4605EBDB71491001FB0471F1
:100810000090C8B22B4620220299FFF747FF12E052
:100820004FF0010A0120AB4605EBDB71491001FBDB
:1008300004710090C8B208F13001CAB22B46029987
:10084000FFF734FF00BF601CC4B2B442C3DB05B085
:10085000BDE8F08FF8B506460F4615461C4621E068
:1008600004EBD4714910C1F18001B14202DA0026D3
:100870003819C7B2C4F14000B84204DA0020064675
:100880000746FFF7AFFE012000902A78234639463D
:100890003046FFF70BFF204604EBD07106EB6101F9
:1008A000CEB26D1C28787E2802DC28782028D7DA82
:1008B000F8BD1CB501215F2000F02EFF1020009034
:1008C00001208DF8040000208DF8060003208DF82B
:1008D000050001208DF807006946114800F07EFCF4
:1008E000C020009069460F481EE000001408024036
:1008F000AC02414200804042940242420000424227
:1009000098824142900240429C8240420080414293
:1009100000AD0020E231000856360008463C0008D1
:10092000000002400004024000F058FC4FF43C601C
:1009300000906946F64800F051FCC02000906946DE
:10094000F44800F04BFC602000906946F24800F04B
:1009500045FC4FF4004000906946F04800F03EFC32
:100960000120EF490860EF49C1F89C02EE49086098
:10097000EE4908600020EE490860642000F054FA57
:100980000120EC49C1F8BC020021AE20FFF7D5FDE3
:100990000021D520FFF7D1FD00215020FFF7CDFD2C
:1009A0000021A820FFF7C9FD00213F20FFF7C5FD6A
:1009B0000021D320FFF7C1FD00210846FFF7BDFD50
:1009C00000214020FFF7B9FD00218D20FFF7B5FD84
:1009D00000211420FFF7B1FD00212020FFF7ADFD1D
:1009E00000210220FFF7A9FD0021A120FFF7A5FDAE
:1009F0000021C020FFF7A1FD0021DA20FFF79DFDB7
:100A000000211220FFF799FD00218120FFF795FDBD
:100A10000021EF20FFF791FD0021D920FFF78DFD88
:100A20000021F120FFF789FD0021DB20FFF785FD84
:100A300000213020FFF781FD0021A420FFF77DFD7C
:100A40000021A620FFF779FD0021AF20FFF775FDFB
:100A5000FFF7C8FD1CBD70B504460D4605F1B00199
:100A6000C8B20021FFF769FD04F00F000021FFF775
:100A700064FD102141EA14100021FFF75EFD70BDF6
:100A80002DE9F04781460F4615461E464FF00008F7
:100A9000781CC1B24846FFF7DEFF00240BE006EBEE
:100AA0004511085D0121FFF748FD08F1010000F044
:100AB000FF08601CC4B2102CF1DB39464846FFF732
:100AC000CAFF00240DE06900491C06EB0111085D16
:100AD0000121FFF732FD08F1010000F0FF08601C62
:100AE000C4B2102CEFDBBDE8F0872DE9F05F0646BD
:100AF0000F4690461C46DDF828A04FF0000BE1178A
:100B000004EB5171C910A4EBC10131B92046E117C2
:100B100004EB5171C1F3C70506E02046E11704EB71
:100B20005171C910491CCDB23D4615E029463046E9
:100B3000FFF791FFB1460BE059460BF1010B1AF894
:100B400001000121FFF7F9FC09F1010000F0FF09A4
:100B5000C145F1DB681CC5B2A542E7DBBDE8F09FEB
:100B60002DE9F04F07460C4690461D46A346002649
:100B700031E0714800EB882010F806904FF0000A31
:100B800023E009F0800028B12A4621463846FFF7C5
:100B90003EFD08E00DB9012000E00020024621469C
:100BA0003846FFF734FD4FF6FF7000EA4909601C34
:100BB000C4B2A4EB0B00402803D15C46781CC7B23A
:100BC00006E00AF101001FFA80FABAF1080FD8DB3B
:100BD00000BF701C86B2B6F5806FCADBBDE8F08F2F
:100BE0002DE9F84F0746884691461C46DDF828B0A7
:100BF00000200090E11704EB5171C910A4EBC10172
:100C000031B92046E11704EB5171C1F3C70506E085
:100C10002046E11704EB5171C910491CCDB20026E2
:100C200022E000200090454617E029463846FFF7AD
:100C300012FFBA460DE00C9901EB462300994A1CBD
:100C40000092585C0121FFF778FC0AF1010000F0E6
:100C5000FF0ACA45EFDB681CC5B2A542E5DB5020A0
:100C600000F0E2F8701CC6B25E45DADBBDE8F88F32
:100C7000F0B52DED048B83B005460E4610232FA250
:100C800000210846FFF7E6FD0024284602F017F988
:100C900041EC190B9FED2C0B53EC102B02F026F9B5
:100CA00041EC180B02F0DAF80746384602F01CFA5D
:100CB00041EC180B53EC182B25A1684601F0ACF859
:100CC0000C2325A218210020FFF7C4FD0DE0AC4243
:100CD0000ADA04EB44010C2202EB8101C8B213468C
:100CE0001EA21821FFF7B6FD641CB442EFDB0C23F3
:100CF0001BA218217020FFF7ADFD0C236A4630219E
:100D00005820FFF7A7FD03B0BDEC048BF0BD000039
:100D100000080240000C024000100240001802408F
:100D200090024042008041429C824042988241426F
:100D3000BC024342000043429C01002050726F6796
:100D4000726573733A000000000000000000294043
:100D5000252E3166252500005B0000002A000000DA
:100D60005D00000010B504466FF0040000F092F939
:100D7000E11704EB5171C1F3C701394A11701046F4
:100D8000007800EB4001C1EBC0104FF6FF7101EAA3
:100D9000C0003449088010BD0146314A12784A43E8
:100DA0004FF0E0235A6100229A611A46126942F01C
:100DB00001021A6100BF4FF0E022106900F0010249
:100DC0001AB100F48032002AF5D04FF0E022126907
:100DD00022F001024FF0E0231A6100229A6170476D
:100DE0000146204A12884A434FF0E0235A6100220C
:100DF0009A611A46126942F001021A6100BF4FF06F
:100E0000E022106900F001021AB100F48032002AD9
:100E1000F5D04FF0E022126922F001024FF0E023FA
:100E20001A6100229A61704770B504464FF407704A
:100E300094FBF0F0C6B24FF4077094FBF0F100FBA6
:100E4000114085B205E04FF40770FFF7C9FF701E2F
:100E5000C6B2002EF7D115B12846FFF7C1FF70BD0D
:100E6000E2AC0020E4AC002000BF704700BF4C4A59
:100E7000128802F04002002AF9D0C2B2484B9A8090
:100E8000704710B588B004460121084600F044FCC4
:100E90000121102000F09AFC07220921414800F0AE
:100EA00028FA07220A213F4800F023FA4FF4C060D5
:100EB000069002208DF81C008DF81D0000208DF892
:100EC0001E0001208DF81F0006A9364800F086F9A3
:100ED00002940020ADF80C00ADF80E00ADF8100043
:100EE000ADF814000C20ADF8120002A92C4800F057
:100EF000CEFD01212A4800F052FE012240F2255188
:100F0000274800F002FF25208DF8040003208DF80B
:100F100005008DF8060001208DF8070001A800F0FB
:100F20006CF808B010BD10B540F225511C4800F017
:100F300027FF10B31A4800F061FEC4B21A480088B7
:100F400000F40040C8B91848008800F4804060B13F
:100F50000A2C03D000201449088020E012480088A1
:100F600040F400401049088019E00D2C06D10E48CD
:100F7000008840F480400C49088010E00A4800884E
:100F8000C0F30D0009490C5407480088401C06496D
:100F9000088008460088C72801DD0020088010BDB1
:100FA0000010014000000240ECAC002000B1002025
:100FB0000948804709480047FEE7FEE7FEE7FEE7ED
:100FC000FEE7FEE7FEE7FEE7FEE7FEE70448054929
:100FD000054A064B70470000B50300088901000868
:100FE00028B2002028B8002028B4002028B400200F
:100FF00032490143324A1160704770B50021002325
:101000000F22C4781CB32E4C246804F4E064C4F5A9
:10101000E064C4F30721C1F10404E3B20A41447857
:101020009C40E1B28478144021430C07210E254CEA
:1010300005786155047804F01F050124AC4005785B
:101040006D11AD0005F1E025C5F8004109E0047817
:1010500004F01F050124AC401B4D0678761145F8BD
:10106000264070BD194A0A400243154B1B1F1A60E7
:10107000704739B1124A121D12680243104B1B1DF2
:101080001A6006E00E4A121D126882430C4B1B1DAB
:101090001A607047042808D14FF0E021096941F037
:1010A00004014FF0E022116107E04FF0E0210969EF
:1010B00021F004014FF0E022116170470000FA05B1
:1010C0000CED00E000E400E080E100E080FFFF1FA5
:1010D00010B504469848844208D10121084600F022
:1010E00086FB0021012000F082FB76E093488442D9
:1010F00008D10121022000F07AFB0021022000F03B
:1011000076FB6AE08E48844208D10121042000F079
:101110006EFB0021042000F06AFB5EE089488442F7
:1011200008D10121082000F062FB0021082000F016
:101130005EFB52E08448844208D10121102000F077
:1011400056FB0021102000F052FB46E07F4884420D
:1011500008D10121202000F04AFB0021202000F0CE
:1011600046FB3AE07A48844208D10121402000F051
:101170003EFB0021402000F03AFB2EE075488442FF
:1011800008D10121802000F032FB0021802000F0F6
:101190002EFB22E07048844208D10121801500F026
:1011A00026FB0021A01500F022FB16E06B488442CC
:1011B00008D10121401500F01AFB0021601500F054
:1011C00016FB0AE06648844207D10121001500F0B1
:1011D0000EFB0021201500F00AFB10BDF0B50A46F9
:1011E00000210023002400BF3DE0012505FA01F3A2
:1011F000156805EA03049C4234D105684F000326B4
:10120000BE40B543056015794E00B54006683543CC
:1012100005601579012D02D01579022D16D185684A
:101220004F000326BE40B543856055794E00B5405A
:10123000866835438560456801268E40B543456024
:10124000456896798E40B6B235434560C5684F0013
:101250000326BE40B543C560D5794E00B540C6688B
:101260003543C560491C1029BFD3F0BD4FF6FF714F
:1012700001600021017141718171C171704708B530
:101280004FF480320092009A0A430092009AC261A1
:10129000C161009AC261C2690092C269009208BD30
:1012A0000246002013690B400BB1012000E0002032
:1012B00070470146086980B27047024600205369B2
:1012C0000B400BB1012000E0002070470146486947
:1012D00080B2704701837047418370470AB1018330
:1012E00000E0418370474161704742694A40426172
:1012F0007047F0B5002300244D07ED0E02FA05F308
:10130000CE1000F1200555F826504E07F70E0F2697
:10131000BE40B543CF1000F1200646F82750CE104E
:1013200000F1200555F8265045EA0304CE1000F1DF
:10133000200545F82640F0BD0000024000040240B0
:1013400000080240000C024000100240001402405D
:1013500000180240001C024000200240002402400D
:1013600000280240F948006840F00100F749086091
:101370000020F64908310860F4480068F449084044
:10138000F2490860F348091D0860F348EF498431C9
:101390000860F0481038091D0860EC48006820F427
:1013A0008020EA4908600020E8490C310860E749DC
:1013B0008C31086070470021E44A921C117011467C
:1013C0000870704710B501460022002300204A1122
:1013D000012A02D1DD4C236808E0022A03D1DB4C4C
:1013E0007034236802E0D94C7434236801F01F0282
:1013F000012494401C400CB1012000E0002010BDED
:1014000038B5002000900024002500BF3120FFF7F0
:10141000D9FF05460098401C00900098B0F5A04FF9
:1014200001D0002DF2D03120FFF7CCFF08B101240C
:1014300000E00024204638BD01460020C34A106861
:1014400020F0F80040EAC10010607047C34908600E
:1014500070470021BD4A703211701170012802D00E
:1014600004280AD104E00121B84A7032117005E065
:101470000521B64A7032117000E000BF00BF70470E
:10148000B7490860704770B5049C41EA821501268F
:10149000C6EB530645EA0645054345EA0465AB4EEF
:1014A000361D356070BDAD4908667047820142EA5D
:1014B0000172A64B84331A607047A849886670474A
:1014C00010B5830143EA016343EA02739F4C8834F9
:1014D000236010BDA14908677047A049C8647047E0
:1014E00002460020994B0833186820F0EC6042EA6D
:1014F00001031843954B08331860704702460020DB
:10150000924B0833186820F0784042EA01031843F0
:101510008E4B083318607047014600208B4A083212
:10152000106820F0030008431060704787480830B7
:10153000006800F00C00704701460020834A083222
:10154000106820F0F000084310607047014600204A
:101550007E4A0832106820F4E0500843106070475B
:1015600001460020794A0832106820F4604040EAC1
:10157000C10010607047F0B5002100220024022550
:1015800000260223714F08373F6807F00C0121B194
:10159000042905D0082937D105E0724F076036E0ED
:1015A000714F076033E0694F3F1D3F68C7F38056B6
:1015B000664F3F1D3F6807F03F036EB16A4FB7FBB0
:1015C000F3F7DFF888C10CF1040CDCF800C0CCF3B1
:1015D000881C07FB0CF40CE0624FB7FBF3F7DFF855
:1015E0006CC10CF1040CDCF800C0CCF3881C07FBC8
:1015F0000CF4564F3F1D3F68C7F301477F1C7D0029
:10160000B4FBF5F7076002E0564F076000BF00BF6C
:101610004E4F08373F6807F0F0010909534F7A5CD5
:101620000768D7404760494F08373F6807F4E051E3
:10163000890A4E4F7A5C4768D7408760434F083726
:101640003F6807F46041490B484F7A5C4768D740D0
:10165000C760F0BD002100F44072B2F5407F0AD1AE
:101660003A4A0832116821F4F811414A0240114304
:10167000364A08321160354A70321268C0F30B03E3
:101680001A43324B70331A60704735494439086049
:1016900070473349403908607047364908607047E1
:1016A00001460020294A8C32106820F01F004A1E93
:1016B0001043264A8C321060704701460020234AAE
:1016C0008C32106820F4F8504A1E40EA02201F4A6B
:1016D0008C3210607047014600201C4A8C32106822
:1016E00020F4401008431060704701460020174A5C
:1016F0008C32106820F440000843106070470146A7
:101700000020124A8C32106820F4403008431060E8
:10171000704719490860704739B10C4A3032126875
:1017200002430A4B30331A6006E0084A303212682E
:101730008243064B30331A607047F9B1034A3432A2
:1017400012680243014B34331A601CE00038024037
:10175000FFFFF6EA1030002400300020000047426E
:10176000800E47420024F40000127A00EEAC002004
:10177000FFFCFF0F5C014742E01147428F4A1268AD
:1017800082438E4B1A60704739B18C4A121D126821
:1017900002438A4B1B1D1A6006E0884A121D12681C
:1017A0008243864B1B1D1A60704739B1834A0C3245
:1017B00012680243814B0C331A6006E07F4A0C32F8
:1017C000126882437D4B0C331A60704739B17B4AF3
:1017D000103212680243794B10331A6006E0774AE0
:1017E000103212688243754B10331A60704739B15A
:1017F000724A243A12680243704B243B1A6006E096
:101800006E4A243A126882436C4B243B1A6070473C
:1018100039B16A4A203A12680243684B203B1A6089
:1018200006E0664A203A12688243644B203B1A6005
:10183000704739B1614A1C3A126802435F4B1C3B46
:101840001A6006E05D4A1C3A126882435B4B1C3BFF
:101850001A60704739B1594A143A12680243574B1B
:10186000143B1A6006E0554A143A12688243534BFF
:10187000143B1A60704739B1504A103A126802435B
:101880004E4B103B1A6006E04C4A103A12688243F5
:101890004A4B103B1A60704739B1484A1C321268F3
:1018A0000243464B1C331A6006E0444A1C3212685D
:1018B0008243424B1C331A60704739B13F4A203291
:1018C000126802433D4B20331A6006E03B4A203247
:1018D00012688243394B20331A60704739B1374A56
:1018E000243212680243354B24331A6006E0334A2F
:1018F000243212688243314B24331A60704739B165
:101900002E4A2C32126802432C4B2C331A6006E00C
:101910002A4A2C3212688243284B2C331A607047B3
:1019200039B1264A303212680243244B30331A60F0
:1019300006E0224A303212688243204B30331A606C
:101940007047012808D11D493C31096841F0080160
:101950001A4A3C32116007E018493C31096821F00D
:101960000801164A3C321160704739B1134A273AD0
:1019700012780243114B273B1A7006E00F4A273AB0
:10198000127882430D4B273B1A7070470B4840304A
:10199000006840F080700949403108607047014696
:1019A0000020064A283A12680A400AB1012000E0E5
:1019B00000207047014926390870704734380240CA
:1019C00010B50446FA48844208D101211020FFF7DF
:1019D00052FF00211020FFF74EFF57E0F5488442E8
:1019E00009D101214804FFF735FF00214FF40030F1
:1019F000FFF730FF4AE0F048844209D10121880412
:101A0000FFF728FF00214FF48020FFF723FF3DE080
:101A1000EA48844209D10121C804FFF71BFF0021D5
:101A20004FF40020FFF716FF30E0E548844209D16B
:101A300001210805FFF70EFF00214FF48010FFF78A
:101A400009FF23E0DF48844208D101212020FFF76D
:101A500012FF00212020FFF70EFF17E0DA48844232
:101A600009D101218807FFF7F5FE00214FF08040E2
:101A7000FFF7F0FE0AE0D548844207D10121400576
:101A8000FFF7E8FE00216005FFF7E4FE10BD2DE939
:101A9000FF4705460E460024A14600BFA046B08978
:101AA00000B100BF2C8A24F44054F08804432C82F7
:101AB000AC8941F20C608443B08831890843718954
:101AC00008430443AC81AC8A24F44074B0890443D5
:101AD000AC826846FFF74FFDB548854202D0B94851
:101AE000854202D1DDF80C9001E0DDF80890A8896C
:101AF00000F4004040B109EBC90000EB0910316867
:101B00004900B0FBF1F707E009EBC90000EB091051
:101B100031688900B0FBF1F76420B7FBF0F00401F5
:101B20002009642101FB1078A88900F4004040B12D
:101B3000322000EBC800B0FBF1F000F007000443D6
:101B400008E0322000EB08106421B0FBF1F000F057
:101B50000F0004432C81BDE8FF874FF4165101604C
:101B600000218180C18001810C214181002181817E
:101B7000704710B502460020108A20F470600B8870
:101B80004C8823438C882343CC88234318431082FA
:101B900010BD0021018041808180C180704721B14A
:101BA000828942F40052828104E082894DF6FF73FB
:101BB0001A4082817047028B02F47F420283028BBB
:101BC0000A430283704721B1828942F40042828134
:101BD00003E08289C2F30E028281704721B1828ABA
:101BE00042F40062828204E0828A4FF2FF731A405C
:101BF00082827047C1F3080282807047014688885C
:101C0000C0F308007047028A4FF6F0731A40028250
:101C1000028A0A430282704721B1828942F002029D
:101C2000828104E082894FF6FD731A4082817047F9
:101C300082894FF2FF731A40828182890A4382812E
:101C40007047028A4FF6DF731A400282028A0A4303
:101C50000282704721B1028A42F48042028204E08B
:101C6000028A4BF6FF731A4002827047818941F065
:101C700001018181704721B1828A42F0080282828B
:101C800004E0828A4FF6F7731A4082827047028B13
:101C9000D2B20283028B42EA01220283704721B151
:101CA000828A42F02002828204E0828A4FF6DF7349
:101CB0001A408282704721B1828A42F010028282E9
:101CC00004E0828A4FF6EF731A4082827047828A5C
:101CD0004FF6FB731A408282828A0A4382827047DF
:101CE00021B1828A42F00202828204E0828A4FF6A7
:101CF000FD731A40828270471AB1838A0B43838234
:101D000002E0838A8B4383827047F0B50346002448
:101D100000260025002040F66A17B94200D100BF16
:101D20001846C1F3421401F01F06012707FA06F511
:101D3000012C01D10C3004E0022C01D1103000E064
:101D400014301AB107682F43076002E00768AF43F9
:101D50000760F0BD02460020B1F5007F00D100BF52
:101D600013880B400BB1012000E00020704701F404
:101D70000072B2F5007F00D100BFCA4302807047F5
:101D800070B50246002400230025002040F66A16A4
:101D9000B14200D100BFC1F3421501F01F0301267B
:101DA00006FA03F3012D13D19689334017E00000A2
:101DB000001001400044004000480040004C00403A
:101DC000005000400014014000780040007C0040BA
:101DD000022D02D1168A334001E0968A33400C125C
:101DE000012606FA04F41688344013B10CB1012020
:101DF00000E0002070BD10B50022002340F66A14F8
:101E0000A14200D100BF0A1201249440A3B2DC43D6
:101E1000048010BD704700000FB41CB5074B06AA24
:101E20007B4469460090059800F0A7FA00206946B7
:101E300000F0B6FA1CBC5DF814FB00007D05000044
:101E40002DE9F0474FF0000A89460446C0F820A06B
:101E50002046E1688847002876D0252806D0D4E9B6
:101E600001219047206A401C2062F1E7E16820468A
:101E700000258847C4F81CA006460027C4F818A00F
:101E80002A2E09D0304600F0CCFF38B304EB870887
:101E9000303EC8F8186019E059F8041B204604EBDE
:101EA00087029161E1688847012F064618D1E069F1
:101EB000002820DA25F020051DE0D8F8180000EBF6
:101EC000800006EB40003038C8F818002046E16872
:101ED0008847064600F0A5FF0028EED1012F0AD062
:101EE0002E2E08D12046E16888477F1C0646022F27
:101EF00045F02005C4DBA069002803DA404245F024
:101F00000105A061E80701D025F01005B6B1A6F1E2
:101F10004100192802D8203645F400654A4631466A
:101F2000204625604D46FEF789F958B1012806D0B4
:101F3000ED1D25F0070000F1080989E704E005F12F
:101F4000040985E730468AE7206ABDE8F0877047D4
:101F500070477047704770472DE9FF4F0C461E468B
:101F60004FF0FF378BB0D2E90001DDF860800A90B6
:101F70008A46C1F30A5505B93D46002108464FF08F
:101F80000000BAF1000F00F4400005DA00EB800019
:101F90004FF4400101EA50004FEA9059B9F1010FA6
:101FA00000DDB9460A9850EA4A000ED044F61050B7
:101FB000A5F2FF3545432F14B8F1000F1ED075422E
:101FC000291E1EDDC9F100021CE0B8F1010F4FF01F
:101FD000000001D0302103E0F24305E02154401C11
:101FE000B042FBDB30460022002121540B99C1F89E
:101FF0000880C1E900200FB0BDE8F08FBD1B6D1C4B
:10200000DEE74A4600DA694206A800F059FA06AB54
:1020100093E8070003AB83E8070050460A9900F0F5
:102020002DFB8DE80700A0F500501F3800900398A5
:10203000002D09DD42F21F014A46084403A903901E
:10204000684600F08CFD08E0A0F500504A461F38B5
:1020500003A90390684600F096FD8DE80700000490
:10206000000C03D04FF0FF30410800E01046B8F1FB
:10207000000F03D00022009215461EE0751E05D405
:1020800000F098F9303262556D1EF9D5B346012241
:10209000084302D000227F1C04E02078302801D1C0
:1020A00000227F1E002A099786D01DE0112D07DA35
:1020B00000F080F9303262556D1C50EA0102F5D112
:1020C000084302D00098C8B10EE00021681E05E068
:1020D000235C625C63542254401E491C8142F7DB3E
:1020E000AB46A81B401E0990002004F80B000B987B
:1020F000099AC0F80880C0E9002B7CE711264FF050
:10210000000859E72DE9F04F88460446D21D22F019
:10211000070191B0D1E90001CDE90A0100F069FEA3
:1021200002460B98C00F01D02D2007E020688107E0
:1021300001D52B2002E0202101EAC000032A0990EA
:1021400001D0072A05DB03464146204600F078F916
:102150000BE12078800601D5E06900E00620B8F1A7
:10216000650F814606D0B8F1660F18D0B8F1670F39
:1021700070D131E00020B9F1110F009001DB112383
:1021800001E009F101030AAA01A90CA8FFF7E4FE86
:10219000DDE90C70002609F10105834647E00120C6
:1021A0004B4600904FF000470AAA01A90CA8FFF780
:1021B000D3FEDDE90DB00C995D46002610B909F19A
:1021C00001000D18B9EB050003D4C0F1FF3609F189
:1021D0000105A5EB09002BE0B9F1010F01DA4FF081
:1021E00001090020B9F1110F0090484601DD1123CB
:1021F00000E003460AAA01A90CA8FFF7ADFEDDE93D
:102200000C704D4600268346207800070AD4AB4563
:1022100000DA5D4601A8012D04DD411911F8011C09
:10222000302907D04F4502DA17F1040F04DA0120F4
:1022300082460FE06D1EEEE7002F02DCED1B3E44F0
:1022400003E0781CA84200DD7D1CB81B00F1010AE8
:102250004FF000472078000703D4AA4501DB4FF078
:10226000FF3A0021B7F1004F0DF143088DF84310FC
:1022700024D002202B23002F01DA7F422D230A21B4
:10228000021EA0F1010000DC5FB197FBF1FC97FB9F
:10229000F1F201FB1C7C17460CF1300C08F801CD63
:1022A000EEE7A8F1010003702188090501D5452159
:1022B00000E06521A0F1010800F8011C09980FA9B0
:1022C000A1EB0807FF1D00B10120411901EBEA70E5
:1022D000A1693844081A401EA0612078C00602D4C3
:1022E0002046AFF30080099828B1D4E90121904736
:1022F000206A401C20622078C00622D52046AFF319
:1023000000801EE0002E04DBB34502DD01A8805DE5
:1023100000E03020D4E901219047206A401C20626F
:10232000761CAAF101005FEA000A0AD100F03EF82B
:10233000C0680168405CD4E901219047206A401CD4
:102340002062281EA5F10105DCDC07E0D4E90121AB
:1023500018F8010B9047206A401C2062381EA7F134
:102360000107F3DC2046AFF30080032011B043E601
:1023700001694A1C02610878704700B58FB0CDE949
:1023800001310021059105497944CDE90310114639
:102390006846FFF755FD0FB000BD0000E5FFFFFFE9
:1023A0000A6802F8010B0A60704700000048704795
:1023B000E8B1002030B5B0F10A024FEA900E71F199
:1023C00000034EEA817EB0EB0E0061EB91014FEA13
:1023D000101E4EEA017E10EB0E0041EB11114FEA88
:1023E000102E4EEA016E10EB0E0041EB11214FEA68
:1023F000104E4EEA014E10EB0E0041EB1141401819
:1024000041F100014FEAD00040EA41704FEAD101AA
:1024100010EB80054FEA810444EA907444EB010418
:102420006D1944EB0404521BA3414FF0000348BF55
:102430000A3200D530BD401C41F1000130BD000022
:102440002DE9F0411F46044603260168072A01F4DE
:10245000006004DB08B116A505E016A503E008B18D
:1024600015A500E015A521F010002060A069C01E90
:10247000A0610FB1401EA0612046AFF300804FB1B4
:10248000D4E9012138469047206A401C2062C01CD4
:10249000206206E0206AFAE7D4E9012115F8010B71
:1024A0009047761EF8D22046AFF30080BDE8F08159
:1024B0004E414E006E616E00494E4600696E6600E8
:1024C0002DE9F047814616468AB0334878440DC856
:1024D0008DE80D0030487844801C03AC0DC884E8BA
:1024E0000D0041F69B300844372190FBF1F290FB40
:1024F000F1F5A5F1800501FB12041B3C02D56442F5
:10250000012000E00020DFF890A080460027FA4478
:10251000AAF1BE0A0DE0E00709D03246684607EB93
:1025200047010AEB810100F02EFB8DE807006410E3
:102530007F1C002CEFD1184F7F44AC3F18E0E80718
:1025400014D007EB04100DF1180A90E80E008AE889
:102550000E00C068F04201D198190890324606A9D1
:1025600003A800F010FB03AB83E807006D10641CA8
:10257000002DE4D132466946B8F1000F03A802D01D
:1025800000F0EDFA01E000F0FEFAC9E90001C9F837
:1025900008200AB0BDE8F0875025000000487047C9
:1025A000C8B100207546FFF7F9FFAE460500694641
:1025B000534620F00700854618B020B5FEF706FD0B
:1025C000BDE820404FF000064FF000074FF0000834
:1025D0004FF0000B21F00701AC46ACE8C009ACE8B5
:1025E000C009ACE8C009ACE8C0098D467047044694
:1025F000AFF300802046FDF73DFE00004FF0013CA8
:1026000050F8042B51F8043B9A4221D1A2EB0C0361
:10261000934313EACC1317D150F8042B51F8043B21
:102620009A4215D1A2EB0C03934313EACC130BD1BE
:1026300050F8042B51F8043B9A4209D1A2EB0C0349
:10264000934313EACC13DBD04FF00000704700BF78
:10265000D01A01BAB1FA81F101F0180122FA01F0A1
:10266000CB40C1F12001DBB2C0B2C01A2CFA01F399
:10267000D11A914311EAC311E6D170475FEA400CC9
:1026800008BF91F0000F4FEA8C234FEAC12243EAC2
:1026900051514FEA1C5018BF00F5F0404FEA30008E
:1026A00018BF41F000415FEA6C5C00F02980BCF18A
:1026B000FF3F08BF40F080407047130C06BF120474
:1026C0004FF0100C4FF0000C130E04BF12020CF16F
:1026D000080C130F04BF12010CF1040C930F04BF7C
:1026E00092000CF1020CD30F04BF52000CF1010C4C
:1026F00011464FF00002A0F11F00A0EB0C00704744
:1027000011F0004F08BF704731F000413FF4D5AFE2
:102710000B0C06BF09044FF0100C4FF0000C0B0E11
:1027200004BF09020CF1080C0B0F04BF09010CF1E6
:10273000040C8B0F04BF89000CF1020CCB0F04BFFB
:1027400049000CF1010CCCF12003A0EB0C0022FAA3
:1027500003F302FA0CF241EA030100F101007047B1
:1027600020F07F4C80EA030023F07F47ACEB0703A7
:1027700003F57C5300F0004003F1FF032DE980498D
:102780004FEA154B09B44FEA144325EA0B4E24EAED
:1027900003480FF2042606EB132749083E785FEA48
:1027A000320203FB0667C7F5000707FB06F64FEA90
:1027B00054374FEAD64606F1020607FB066CCCF109
:1027C000005C4FEA1C472CEA074C07FB06F40CFBA5
:1027D00006F504EB15464FEA961634BF00204FF07D
:1027E00000404FEAD13706FB07FC4FEA1C4C0CFBBC
:1027F0000BF7D21B03FB0CF761EB07010CFB0EF789
:10280000B0EB074072EB17420CFB08F734BFA2EBAA
:102810000742B2EB074261EB17414FEA0C444FEA23
:10282000910706FB07FC4FEA1C4C0CFB0BF7B0EBC7
:10283000C74072EB573203FB0CF734BFA2EBC74221
:10284000B2EBC74261EB57310CFB0EF7B0EBC700A0
:1028500072EB57720CFB08F734BFA2EBC702B2EB66
:10286000C70261EB5771039F4FEA816141EA921100
:1028700004EBCC044FEAD1374FEA826206FB07FC37
:1028800042EA90124FEA80604FEA1C4C0CFB0BF7B7
:10289000D21B03FB0CF761EB07010CFB0EF7B0EB4F
:1028A000074072EB17420CFB08F734BFA2EB07425C
:1028B000B2EB074261EB17414FEA8C554FEA9107A3
:1028C00004EB9C2406FB07FC4FEA1C4C0CFB0BF7AB
:1028D000B0EBC74072EB573203FB0CF734BFA2EBEF
:1028E000C742B2EBC74261EB57310CFB0EF7B0EBBE
:1028F000C70072EB57720CFB08F734BFA2EBC7029C
:10290000B2EBC70261EB577115EB4C254FEA8161C1
:1029100041EA92114FEA82624FEAD13742EA9012BD
:1029200006FB07FC44F100044FEA80604FEA1C4CB0
:102930000CFB0BF7D21B03FB0CF761EB07010CFB45
:102940000EF7B0EB074072EB17420CFB08F734BFF1
:10295000A2EB0742B2EB074261EB174115EB1C15E6
:102960004FEA813141EA92414FEA823242EA904293
:102970004FEA80304FEA0C7644F1000448EA034302
:102980004EEA0B484FF0000EB2EB080C71EB030758
:1029900024BF624639464EEB0E0E4FF0000B001876
:1029A000524149414BEB0B0BB2EB080C71EB0307A7
:1029B0007BF1000B24BF624639464EEB0E0E4FF002
:1029C000000B0018524149414BEB0B0BB2EB080CCA
:1029D00071EB03077BF1000B24BF624639464EEBD7
:1029E0000E0E51EA020718BF46F0010616EB0E76EE
:1029F00055F1000254F1000103D5BDE88901BDE89D
:102A00000088BDE88901BDE80048B619524141EB94
:102A10000101A3F10103704780807F7E7D7C7B7A7A
:102A20007978777676757473727171706F6E6E6D7A
:102A30006C6C6B6A6A696868676666656464636320
:102A400062616160605F5F5E5E5D5D5C5C5B5B5AA6
:102A50005A59595858575756565555555454535313
:102A600052525251515050504F4F4F4E4E4D4D4D6E
:102A70004C4C4C4B4B4B4A4A4A49494948484847B9
:102A800047474746464645454544444444434343F7
:102A90004342424242414141002B26D4770021D09B
:102AA0001CB54FEA370703B44FF010004FF0100188
:102AB0004FF000000FBCBDE810400BF1010BBBF163
:102AC000010F08BF5FEA170722BF12F1010211F1DF
:102AD00001014FF0004143F1000300F0004043EAE0
:102AE00000007047F9D35708DAE746EA064613F1C3
:102AF000400F4FEA16461FDD13F1200FDFBF1643CC
:102B00000A46002120335B42C8D0C3F1200746EAC1
:102B1000064602FA07F74FEA164646EA0706C3F1E9
:102B2000200722FA03F201FA07F721FA03F14FF026
:102B3000000342EA0702B1E746EA020646EA064611
:102B40004FEA164646EA0106BCBF46EA0646360C80
:102B50004FF000034FF000024FF000019EE72DE917
:102B6000C048934630B491E8380007C831EA400CB9
:102B700048BF34EA430C03D5FFF7F2FDFFF78CFFA3
:102B8000F0BCBDE800882DE9C048934630B491E818
:102B9000380007C810F0804F08BF13F0804F03D1F2
:102BA00000F005F8FFF778FFF0BCBDE8008820F0E2
:102BB0007F4780EA030023F07F4C07EB0C03A3F56B
:102BC0007C5300F00040A3F1FE0392F0000F00F0F0
:102BD000B38095F0000F00F077802DE901494FEAAE
:102BE00011404FEA144621EA004800FB06FC24EAA3
:102BF000064708FB06F607FB08F800FB07F718EB8B
:102C000006484CEB164C4FEA124B18EB07484FEABC
:102C100015464CEB174022EA0B4E0BFB06FC25EA4F
:102C200006470EFB06F607FB0EFE0BFB07F71EEB37
:102C3000064E4CEB164C4FF000061EEB074E4CEBCD
:102C4000174B18EB0B0840F1000018EB0E0B58EB7C
:102C5000000840F100008F1A4FF000013CBFC9434B
:102C6000661B14BFB5EB040C00213CBFC943F61B27
:102C70004FEA17444EEA8E0E27EA04454FEA1C47F6
:102C800004FB07622CEA074C05FB07F70CFB05F673
:102C900004FB0CFC16EB074642EB174216EB0C4606
:102CA00042EB1C421BEB060658EB0202414146EA8E
:102CB0009E0601D5BDE80189B619524141EB0101DB
:102CC000A3F10103BDE801894FEA14454FEA11471A
:102CD00024EA054621EA074C05FB07F406FB07F743
:102CE0000CFB06F105FB0CFC11EB074144EB174410
:102CF0004FEA124711EB0C4144EB1C4422EA074C0B
:102D000005FB07F206FB07F70CFB06F605FB0CFCC0
:102D100016EB074642EB174216EB0C4642EB1C45FE
:102D20006A1854F1000148BF7047B619524141EB8F
:102D30000101A3F10103704795F0000F37D04FEA6E
:102D400011424FEA144721EA024624EA074C02FBEB
:102D500007F106FB07F70CFB06F402FB0CFC14EB77
:102D6000074441EB17414FEA154714EB0C4441EB84
:102D70001C4125EA074C02FB07F506FB07F70CFB95
:102D800006F602FB0CFC16EB074645EB174516EB67
:102D90000C4645EB1C42121951F1000148BF704727
:102DA000B619524141EB0101A3F1010370474FEA0B
:102DB00014454FEA114724EA054621EA074C05FB72
:102DC00007F106FB07F70CFB06F24FF0000605FBC8
:102DD0000CFC12EB074241EB174112EB0C4251EB9A
:102DE0001C4148BF7047921841EB0101A3F1010358
:102DF000704703B401984100009850EAC12018BF01
:102E000004204A0D18BF40F0010040F2FF72B2EBFF
:102E1000515F08BF40F00200012808BF052002B042
:102E2000704730380A2801D20120704700207047CF
:102E300010B500290AD00878002807D00548784442
:102E4000FFF7DCFB002801D0002010BD02487844C9
:102E500010BD00001A1C0000121C000021F00042EE
:102E6000A2F16052B2F5801F01F0004328BFD2F1F9
:102E70007F6C0BD95FEA001C43EAC20242EB507040
:102E800018BF704728BF20F001007047B2F5801FBF
:102E9000BCBF184670474FEA410C1CF5001F02D218
:102EA000084600F097B970B500F0CAF80000008934
:102EB000FFF7F6BF4FF00040A0F58000704710F01C
:102EC000004248BF4042B0FA80F310FA03F10AD042
:102ED000C3F11D0303F580634FEA415002EB035237
:102EE00002EBD12170474FF000007047DFF848C176
:102EF00070B51CEA111E1EBF1CEA13159EEA0C0FCA
:102F000095EA0C0F00F06F8081EA030423EA4C136A
:102F10004EEAD47E21EA4C1141F4801143F480132F
:102F2000AE44A1FB024CA0FB0365AEF17F7E3619D7
:102F300055EB0C05A1FB034C4CF10003A0FB021C5C
:102F400016EB0C06654153F10003094218BF46F029
:102F5000010613F4007F0BD14FEA03314FEA05302D
:102F6000340341EA155140EA16506FF003020AE0BB
:102F70004FEAC3214FEAC520F40241EA555140EA25
:102F800056506FF0020202EB2E4201EB025585EA29
:102F9000CE710AD05FEA440C18BF24F0004450F10F
:102FA000000041F1000120EAD47040F2FE7C62454D
:102FB00000D270BDA84214BF4FF080444FF040448F
:102FC000002E08BF0024BEF1806FA8BFA1F1C04150
:102FD000BDE8704080F282804FF0000001F1C041F6
:102FE00001F0004170479EEA0C0F0CEA131518BF60
:102FF00095EA0C0F06D04FF0000081EA030E0EF0A8
:10300000004170BD00F01CF88900013E00F007B8D7
:1030100000F009B84FEA430C5FEA5C5C08D081EA33
:10302000030100F05BB84FEA410C5FEA5C5CF6D14B
:103030004FF00000014970470000FF070000F87FD3
:103040000EF1020E2EF0030E5EF8046B364205D42C
:10305000012A43EB030515F5001F12D8012841EBA7
:10306000010C1CF5001F0CD80ED14FEAD17C15F5D0
:10307000001F0CEB4C0C0CF1020C08BF4CEBD37C8A
:1030800004E04FF0080C01E04FEAD37C0CEB4C0558
:1030900026FA05F606F00706B6F1040C06D20EEB8A
:1030A000860CBDE870404CF0010C6047DFE80CF086
:1030B000090B02024FF000414FF00000A1F5002182
:1030C00070BD19461046012851EB010418BFD4F514
:1030D000001484BF002001F0004170BD0808A0F575
:1030E00000114FEA3101704743004FEAD30C4FEA19
:1030F0003C0C43401FBF40070CF1605113F0FE4FE2
:1031000070471CF0006F03D100200CF000417047A5
:103110000CF0004343EA507010B540EACC0000F0D8
:103120000EF800BF000000924FEA0001FFF7D6BF83
:103130004FF000414FF00000A1F5002170470EF163
:10314000020E2EF0030E5EF8044B244204D44FEA24
:103150004102B2F17F4F11D84FEA4003B3F17F4FE4
:103160000CD80ED14FEAD07CB2F17F4F0CEB4C0C57
:103170000CF1020C08BF4CEBD17C04E04FF0080CC2
:1031800001E04FEAD17C0CEB4C0324FA03F404F089
:103190000704B4F1040C06D20EEB840CBDE8104019
:1031A0004CF0010C6047DFE80CF0070802024FF01A
:1031B0000040A0F5800010BD0846420018BFD2F1C3
:1031C000807288BF00F0004010BD4FF04070E1EE0B
:1031D000100A7047FF2141EAD050C0057047FEF742
:1031E00091BF00000000000000000000000000008F
:1031F00000003F40000000000000000030004000E0
:1032000030004000000009000BC03D000BC03D0035
:10321000090018C024407FE02240318000001800DF
:1032200024C01B000D803240018003801C402740D9
:103230001C800740004010006000000000000000FB
:1032400000000000000000001F802040402000001F
:10325000402020401F8000000000090006001F8061
:10326000060009000000040004003F800400040080
:1032700000000010006000000000000000000400DA
:1032800004000400040004000000000000400000EE
:10329000000000000000002001C0060038004000CF
:1032A00000001F802040204020401F8000000000C0
:1032B00010403FC000400000000018C021402240E4
:1032C00024401840000010802040244024401B80EF
:1032D000000002000D0011003FC0014000003C80D2
:1032E000244024402440238000001F8024402440A8
:1032F0003440038000003000200027C03800200048
:1033000000001B802440244024401B8000001C003F
:1033100022C0224022401F80000000000000084020
:103320000000000000000000000004600000000039
:103330000000000004000A00110020804040090045
:103340000900090009000900000000004040208039
:1033500011000A0004001800200023402400180077
:1033600000001F802040274029401F4000000040EF
:1033700007C039000F0001C0004020403FC024407A
:1033800024401B8000001F802040204020403080CF
:10339000000020403FC0204020401F80000020400F
:1033A0003FC024402E4030C0000020403FC0244099
:1033B0002E00300000000F0010802040224033809B
:1033C000020020403FC0040004003FC020402040D5
:1033D00020403FC0204020400000006020202020EE
:1033E0003FC02000200020403FC024400B0030C0E0
:1033F000204020403FC020400040004000C03FC06F
:103400003C0003C03C003FC0000020403FC00C40D7
:1034100023003FC020001F802040204020401F800C
:10342000000020403FC024402400180000001F80FE
:103430002140214020E01FA0000020403FC0244048
:10344000260019C0004018C024402440224031808A
:103450000000300020403FC020403000000020002D
:103460003F80004000403F80200020003E0001C01F
:10347000070038002000380007C03C0007C03800B3
:103480000000204039C0060039C020400000200064
:10349000384007C0384020000000304021C026409E
:1034A000384020C00000000000007FE040204020A5
:1034B0000000000070000C000380004000000000CD
:1034C000402040207FE0000000000000200040007D
:1034D000200000000000001000100010001000107C
:1034E000001000000000400000000000000000008C
:1034F00002800540054003C0004020003FC004405A
:1035000004400380000000000380044004400640A3
:10351000000000000380044024403FC00040000041
:1035200003800540054003400000000004401FC028
:10353000244024402000000002E0055005500650C1
:10354000042020403FC00440040003C000400000AD
:10355000044027C0004000000000001000100410CC
:1035600027E00000000020403FC00140070004C0E9
:103570000440204020403FC000400040000007C001
:10358000040007C0040003C00000044007C004405A
:10359000040003C000400000038004400440038096
:1035A0000000041007F004500440038000000000F5
:1035B00003800440045007F00010044007C002409C
:1035C000040004000000000006400540054004C05F
:1035D0000000000004001F800440004000000400C0
:1035E00007800040044007C000400400070004C0FA
:1035F000018006000400060001C0070001C00600AB
:103600000000044006C0010006C004400000041091
:10361000071004E00180060004000000044005C01B
:103620000640044000000000000004007BE0402051
:103630000000000000000000FFF00000000000009B
:1036400040207BE0040000000000400080004000BB
:1036500020002000400000000000000000000000EA
:103660000000000000000000000000001FCC000C63
:1036700000000000000000000800300060000800AA
:10368000300060000000022003FC1E20022003FC2A
:103690001E200220000000000E1811043FFF1084BD
:1036A0000C78000000000F0010840F3800C007786D
:1036B00018840078000000780F8410C411240E983C
:1036C00000E40084000808006800700000000000AA
:1036D00000000000000000000000000007E01818D3
:1036E000200440020000000040022004181807E0F7
:1036F0000000000000000240024001800FF0018045
:103700000240024000000080008000800FF800802E
:103710000080008000000001000D000E000000008D
:103720000000000000000000008000800080008099
:103730000080008000800000000C000C00000000F1
:10374000000000000000000000060018006001807A
:10375000060018002000000007F0080810041004FC
:10376000080807F000000000080408041FFC00041B
:1037700000040000000000000E0C1014102410447F
:1037800011840E0C000000000C1810041104110428
:1037900012880C700000000000E0032004240824BC
:1037A0001FFC0024000000001F9810841104110465
:1037B000108810700000000007F008881104110440
:1037C00018880070000000001C00100010FC13009E
:1037D0001C001000000000000E38114410841084FA
:1037E00011440E38000000000700088C10441044FB
:1037F000088807F00000000000000000030C030C24
:1038000000000000000000000000000101060000B0
:1038100000000000000000000080014002200410B1
:1038200008081004000002200220022002200220CA
:1038300002200220000000001004080804100220EA
:1038400001400080000000000E001200100C106CFF
:1038500010800F00000003E00C1813E4142417C4B8
:10386000082807D000000004003C03C41C400740A7
:1038700000E4001C000410041FFC110411041104D6
:103880000E880070000003E00C18100410041004EF
:1038900010081C10000010041FFC10041004100479
:1038A000080807F0000010041FFC1104110417C4DD
:1038B00010040818000010041FFC1104110017C0A8
:1038C00010000800000003E00C181004100410445D
:1038D0001C780040000010041FFC10840080008051
:1038E00010841FFC10040000100410041FFC1004BE
:1038F00010040000000000030001100110011FFE71
:1039000010001000000010041FFC11040380146458
:10391000181C1004000010041FFC10040004000414
:103920000004000C000010041FFC1F0000FC1F001E
:103930001FFC1004000010041FFC0C04030000E036
:1039400010181FFC100007F00808100410041004E1
:10395000080807F0000010041FFC1084108010807D
:1039600010800F00000007F0081810241024101C0D
:10397000080A07F2000010041FFC1104110011C016
:1039800011300E0C000400000E1C11041084108471
:1039900010441C3800001800100010041FFC100414
:1039A00010001800000010001FF8100400040004AC
:1039B00010041FF8100010001E0011E0001C007021
:1039C00013801C0010001FC0103C00E01F0000E02E
:1039D000103C1FC000001004180C163401C001C0B8
:1039E0001634180C100410001C00130400FC1304FF
:1039F0001C00100000000804101C10641084130444
:103A00001C04101800000000000000007FFE4002AF
:103A1000400240020000000030000C000380006003
:103A2000001C0003000000004002400240027FFE34
:103A300000000000000000000000200040004000E6
:103A40004000200000000001000100010001000111
:103A500000010001000100004000400020000000C3
:103A6000000000000000000000980124014401440F
:103A7000014400FC000410001FFC00880104010444
:103A8000008800700000000000700088010401043C
:103A90000104008800000000007000880104010497
:103AA00011081FFC0004000000F801440144014417
:103AB000014400C800000000010401040FFC1104CF
:103AC000110411001800000000D601290129012964
:103AD00001C90106000010041FFC00840100010060
:103AE000010400FC000400000104190419FC000496
:103AF00000040000000000000003000101011901A2
:103B000019FE0000000010041FFC0024004001B456
:103B1000010C010400000000100410041FFC00044C
:103B2000000400000000010401FC0104010001FC8C
:103B30000104010000FC010401FC008401000100FB
:103B4000010400FC0004000000F801040104010469
:103B5000010400F80000010101FF008501040104D7
:103B6000008800700000000000700088010401045B
:103B7000010501FF00010104010401FC00840104AE
:103B8000010001800000000000CC01240124012478
:103B900001240198000000000100010007F8010461
:103BA000010400000000010001F80004000400040A
:103BB000010801FC0004010001800170000C0010EC
:103BC00001600180010001F0010C003001C00030F3
:103BD000010C01F0010000000104018C007401706F
:103BE000018C01040000010101810171000E001827
:103BF00001600180010000000184010C01340144D6
:103C00000184010C00000000000000000000010021
:103C10003EFC400240020000000000000000FFFFE8
:103C20000000000000000000400240023EFC0100D5
:103C300000000000000000006000800080004000E4
:103C400040002000200000000000000000000000F4
:103C50000000000000000000000000000000000064
:103C60000000000000000000000000000000000054
:103C70000000000000000000000F80380FFE380F29
:103C8000803800000000000000000000000000007C
:103C9000000000000100000600000C0000380000D9
:103CA0003100000600000C00003800003000000069
:103CB00000000000000061800067F807F9800061E3
:103CC000800061800061800061800067F807F980F2
:103CD00000618000000000000000000001C0E0035F
:103CE000E0F00630080418081FFFFE040E080787DE
:103CF000F00381E000000000000001F000060C006D
:103D0000040408060C7001F9C0000E00003BE0003E
:103D1000EC18070808040C180003E000000000017C
:103D2000E00007F003F818041C0804170807E1D0A6
:103D300003C0E00023B0003C080020080000100091
:103D400000000000000100003100003200001C00F3
:103D50000000000000000000000000000000000063
:103D60000000000000000000000000000000000053
:103D70000000000000007F0001FFC00780F00C0081
:103D800018100004200002000000000000200002C3
:103D90001000040C00180780F001FFC0007F000035
:103DA0000000000000000000000000000000000013
:103DB00000004200006600006600003C00001800A1
:103DC00003FFC0001800003C000066000066000011
:103DD0004200000000000800000800000800000881
:103DE0000000080001FFC0000800000800000800F3
:103DF0000008000008000000000000010000310081
:103E0000003200001C000000000000000000000064
:103E1000000000000000000000000000000008009A
:103E2000000800000800000800000800000800006A
:103E30000800000800000800000800000000000062
:103E400000000000000038000038000038000000CA
:103E50000000000000000000000000000000000062
:103E6000000000000000000600001C0000700001BF
:103E700080000E0000380000C0000700001C000099
:103E8000300000000000000000007F8001FFE00320
:103E9000807006001804000804000806001803805B
:103EA0007001FFE0007F80000000000000000000C3
:103EB00001000801000801000803FFF807FFF800EF
:103EC00000080000080000080000000000000000DA
:103ED0000001C03802C058040098040118040218F8
:103EE000040418061C1803F81801E0F8000000008C
:103EF000000000000001C0E003C0F0040008040856
:103F00000804080806180803F41801E7F00001E0A7
:103F1000000000000000000000000300000D000091
:103F2000110000610000810803010807FFF80FFF7E
:103F3000F80001080001080000000000000000E097
:103F400007FCD00608080610080610080610080628
:103F50001838060FF00607C000000000000000003F
:103F600000003F8001FFE0038430020818041008BD
:103F7000041008041008071810030FF00007C00011
:103F8000000000000000000003C000070000060061
:103F9000000600F80607F806180006E00007000013
:103FA00006000000000000000001E1E003F7F00659
:103FB0003410041808041808040C08040C08061629
:103FC0001803F3F001C1E000000000000000F80059
:103FD00003FC300306380402080402080402080443
:103FE00004100308F001FFC0007F00000000000083
:103FF0000000000000000000000000000000703819
:104000000070380070380000000000000000000060
:1040100000000000000000000000000000000000A0
:104020000000301A00301C000000000000000000FA
:104030000000000000000000000000000008000078
:1040400014000022000041000080800100400200B6
:1040500020040010080008000000000000002100FB
:1040600000210000210000210000210000210000AB
:1040700021000021000021000021000000000000BC
:1040800000000000080008040010020020010040A9
:1040900000808000410000220000140000080000A1
:1040A000000000000003C00004C00004000008007D
:1040B00038080F380808380810000C300007E000F6
:1040C00003C000000000000000003F8000FFE0038C
:1040D0008070020F1006708804C088048308047F73
:1040E0008802C09003012000FE4000000800001874
:1040F0000001F8003E0801C20007020007E20000CC
:10410000FE00001FC80001F800003800000804008D
:104110000807FFF807FFF80408080408080408085F
:1041200004080806180803F41801E7F00001E0008D
:104130000000000000003F8001FFE00380700200EB
:1041400018040008040008040008040010060020F9
:104150000780C000000004000807FFF807FFF8040C
:10416000000804000804000804001802001003807E
:104170007001FFE0007F8000000004000807FFF8E6
:1041800007FFF804080804080804080804080804DD
:104190003E0804000806001801006000000004004A
:1041A0000807FFF807FFF8040808040800040800DF
:1041B000040800043E000600000600000180000024
:1041C0000000000000003F8001FFE0038070060057
:1041D000180400080402080402080203F00783F030
:1041E00000020000020004000807FFF807FFF804BF
:1041F0000808000800000800000800000800040883
:104200000807FFF807FFF80400080000000000009E
:1042100004000804000804000807FFF807FFF8047A
:10422000000804000804000800000000000000006E
:104230000000000600000700000104000104000166
:1042400004000307FFFE07FFFC0400000400000455
:10425000000004000807FFF807FFF8040C08001826
:1042600000003E0004C7800503C80600F8040038BB
:1042700004001800000804000807FFF807FFF8040E
:104280000008000008000008000008000008000006
:104290000800001800006000000004000807FFF894
:1042A00007800807FC00007FC00003F80007C0007B
:1042B000780007800807FFF807FFF80400080400EB
:1042C0000807FFF807000803C00000E000003800FE
:1042D000001E000007000001C00400F007FFF80402
:1042E0000000000000007F8001FFE00380700600F6
:1042F0001804000804000806001803003001FFE05D
:10430000007F8000000004000807FFF807FFF804A2
:104310000408040400040400040400040400060C5F
:104320000003F80001F000000000000000007F80A2
:1043300001FFE00380700600880400880400C806BE
:10434000003C03003E01FFE6007F84000000040003
:104350000807FFF807FFF8040808040800040C0029
:10436000040F00040BC00610F003F03801E0080051
:10437000000800000001E0F803F0300630100418D7
:1043800008041808040C08040C080206180207F0B8
:104390000781E00000000180000600000400000426
:1043A000000004000807FFF807FFF80400080400F5
:1043B0000004000006000001800004000007FFE088
:1043C00007FFF004001800000800000800000800C3
:1043D000000800000804001007FFE00400000400CB
:1043E0000006000007E00007FE00041FE00001F8DF
:1043F0000000380001E0043E0007C0000600000491
:10440000000004000007E00007FFC0041FF80007D9
:10441000C007F80007FF80043FF80007C004F80059
:104420000700000400000000000400080600180750
:10443000C07805F1C8003E00001F800463E80780D3
:10444000F806001804000800000004000006000040
:1044500007800007E008047C08001FF80007F80048
:10446000180804E00807000006000004000000002F
:10447000000100080600380400F80403E8040F08EF
:10448000047C0805F00807C0080700180400600055
:10449000000000000000000000000000000000001C
:1044A000003FFFFE20000220000220000220000248
:1044B00020000200000000000000000008000007CB
:1044C000000000C0000038000006000001C000002D
:1044D0003000000E0000010000000000000000009D
:1044E0002000022000022000022000022000023FE3
:1044F000FFFE0000000000000000000000000000BF
:104500000000000000000008000010000030000063
:104510002000003000001000000800000000000033
:104520000000000001000001000001000001000087
:104530000100000100000100000100000100000175
:104540000000010000010000000000000000002049
:10455000000020000010000010000000000000001B
:10456000000000000000000000000000000000F05B
:104570000019F8001B180022080026080024080073
:104580002410003FF8001FF8000008000018000089
:104590000004000007FFF80FFFF0001818001008D3
:1045A000002008002008003018001FF0000FC00095
:1045B00000000000000007C0001FF00018300020BD
:1045C00008002008002008003C08001C10000060C3
:1045D0000000000000000000000007C0001FF00005
:1045E000381800200800200800200804101007FFD9
:1045F000F80FFFF0000010000000000000000000B5
:104600000007C0001FF0001230002218002208002E
:104610002208003208001E10000E200000000000DA
:104620000000200000200800200801FFF803FFF828
:1046300006200804200804200807200003000000CA
:10464000000000000000000E000E6E001FF300319D
:10465000B10020B10020B1003191001F13002E1EC7
:1046600000200E00300000000004000807FFF80FD3
:10467000FFF8001008002000002000002008003F84
:10468000F8001FF800000800000000000000000013
:10469000002008002008002008063FF8063FF80028
:1046A00000080000080000080000000000000000F2
:1046B00000000000000003000003002001002001B2
:1046C000002003063FFE063FFC0000000000000043
:1046D000000000000004000807FFF80FFFF80001C9
:1046E00088000300002FC00038F8002038002008A0
:1046F00000000800000000000000000004000804A2
:10470000000804000807FFF80FFFF8000008000089
:1047100008000008000000000000002008003FF82A
:10472000003FF8001008002000003FF8003FF800AC
:104730001008002000003FF8003FF80000080000CB
:1047400000002008003FF8003FF8001008001000AB
:10475000002000002008003FF8001FF800000800BB
:1047600000000000000007C0000FF000183000300B
:1047700008002008002008003008001830000FF062
:104780000007C0000000000000002001003FFF0003
:104790003FFF001011002009002008002008003011
:1047A00038001FF0000FC00000000000000007C02C
:1047B000001FF00038180020080020080020090021
:1047C0001011001FFF003FFF00000100000000204B
:1047D00008002008002008003FF8003FF800080803
:1047E0000010080020080020000030000030000009
:1047F0000000000000000000000C78001E180033CC
:10480000080023080021080021880021980030F0CA
:1048100000386000000000000000200000200000C0
:10482000200000FFF003FFF800200800200800200F
:104830000800003000000000000000000000200020
:10484000003FF0007FF8000018000008000008009A
:104850002010003FF8007FF0000010000000000072
:1048600000002000003000003C00003F800023F0EA
:10487000000078000070002380003C000030000041
:104880002000002000003C00003FE00023F8000072
:10489000E0002700003E00003FE00021F80001E0BA
:1048A000003E00002000000000002008002008005A
:1048B0003838003E680027800003C8002CF8003814
:1048C0003800201800200800000000000000200030
:1048D000003003003C01003F830023EC0000700027
:1048E0002380003C000020000020000000000000A9
:1048F000000000000038080020380020F80023E8FD
:10490000002F88003E0800380800201800007000C2
:104910000000000000000000000000000000000097
:10492000000008000014001FF7FC30000620000201
:104930000000000000000000000000000000000077
:104940000000000000000000FFFFFF00000000006A
:104950000000000000000000000000000000000057
:104960002000023000061FF7FC00140000080000C1
:104970000000000000000000000000000000000037
:10498000001800006000004000004000002000000F
:104990001000000800000400000400000C000010DB
:1049A0000000000002400000000000A00000000025
:1049B00005400000000000C8000000000C4000009E
:1049C0000000409C00000000194000000020BCBE18
:1049D0000000000034400000BFC91B8E000000042E
:1049E000B5400000504BCFD06607E2CF0100000079
:1049F0006C4100003E8251AADFEEA73401000000A6
:104A0000D9420000DCB5A0E23A301F97FFFFFFFF5C
:104A1000B4450000FD25A0C8E9A3C14FFFFFFFFF7B
:104A2000FF3F00000000008000000000FF3F00008A
:104A30000000008000000000744A00080000002010
:104A400000AD0000C40100089C6C000800AD00200F
:104A5000280B0000200200081C000000430000009A
:104A6000F8FFFFFF0C0000000E0000000F00000028
:104A70002E00000011847A030AD009010203040603
:104A8000070809280F80C04060203090109848081F
:104A900048080C01000E12CC08C81898103030607D
:104AA00060C08080902DC060388C860371493006CC
:104AB00008C1E4F6B3F079389940300C18709131A0
:104AC00070D1F2F2C2C2C8861210298183468C309E
:104AD00060C01008F03C0721A818621009A2D0F8A5
:104AE0004E3D0303035022C0A0F89EDDF8FC9EDC7F
:104AF000F8F89FDCF0C0800102071E06FCE8C10345
:104B000019BD845881077CE0237EFF24A4E015149E
:104B10007FFF6D1812806038B4B3333323A3B323FF
:104B2000032323A3A3230116A3263860801569F766
:104B30003F6D25E14849C119314118080F3CE08615
:104B4000080804F4201F0C0A0808183A7B2838C803
:104B50007B991B98B8F8FB1BDAF838286B33981050
:104B600001121C019009080E080880F03E071C0382
:104B7000061CBA12801D611C1E022011351941F15C
:104B80007036011031D948280D020A0B0E0E98C05C
:104B90006030180C071FF128120101030206040CF3
:104BA0000818181013133030301001080A111918A2
:104BB00008080C0406030131C13BFF80BC3BFFF831
:104BC000FC11423F1CE00207161E0388A420E01BD4
:104BD0001C08F4A08D261C08D73B18133806237A2E
:104BE0008E299E1A872911157F81338012C0100FDC
:104BF000FBD0698001800F7EF848C003400F102170
:104C00002C38E0033F09801F0660061E086005CCB3
:104C100030060E183803C3300C013BBE01E4180CFB
:104C2000137BA714E79808173837C0B31818102A51
:104C30003827F078CC180CFA2FFC794C1B21FBA7F5
:104C4000EE394C13F9FBA7FF884C10F9F825FFE863
:104C5000041001F825FD7804302DF827CFDC071B60
:104C6000A7FF0E3C01FFB71C101CFBA5FFC884105A
:104C700031F827EF18EC1871F827FC382C19883810
:104C8000257079CC18173BB7E07B0C08173BA78041
:104C900073D80C1D3BAE01E77E180BB83803E31840
:104CA00006039870019A100A0308C01F0730030E0C
:104CB0000B10141D1060030E0E2DFC08E0018E0970
:104CC000FFF818C001CC1D7FC18180E7120913C312
:104CD00080137008231C6726380BE0DC8E261C042A
:104CE00044CE1C260F0C4588702603804580E03694
:104CF00001E00403C0127E423F440FFFF82B01FF86
:104D00001401FF01FF01871332011A4002015F0401
:104D10003840E0C0000E30C0F0F8E0C080FFFFFE79
:104D2000FCF0C08000122CF0FCFFFF1F0F1F3F3F64
:104D30003F1F0703FFFFFFFC180B80C040878F9FBA
:104D4000387060E00208092970703C9F8F43C040B2
:104D50008300172AC746E86DDA3559B5B2E65A46D8
:104D6000EE9FE90FB8DB6AA466C38008030603025E
:104D70000301011D010101031101FF01FF01FF01F9
:104D80007002FF20014003FF2020013F04FF20208C
:104D900020013E04FF202020013E1A200101FF01D6
:104DA0003D2A200101FF013C3A200101FF01430897
:104DB000083280C0602060C0803808112A30188C0A
:104DC000462B1122C40810204183C62C38381723E3
:104DD0001108840261000A271880C62031080F02DA
:104DE0000300132EC0FF8382040A9120D880C6607E
:104DF00031180C0603011D0103070501092E3701B7
:104E0000DA08092FC0C030103060C0803808132A7B
:104E10004030100C8443251811A2448810A0C063B0
:104E2000361C380011282110088442211088C462E1
:104E300031180C06030108092EFAEFC18286899009
:104E4000A838811D01030104010A2F023901D60887
:104E50000C2E80C060B01818103060C0803800136D
:104E60002430188C4643330C089061428488D0600B
:104E7000311B0E2CC0E0B0380011283108048443E7
:104E8000201088C46231180C060301080A2DF0FFB7
:104E9000E1C0414244487438912C010204010A30B7
:104EA000023A01D4080D2E80C06030580C0418104E
:104EB00060408038001324188C4623110906C4086A
:104EC0003122C0C47030190F022CE07098381608D7
:104ED00004C20130000A298CC06330180C0603019B
:104EE000080B2C7CFF70602122202E303138912C51
:104EF000010204010923AC01E1080F2A80C0E0305F
:104F0000186C068604181060408038001624603043
:104F1000188C46231108048342340891E06638183F
:104F20000C07012DF0384CC638080D2382412010A3
:104F300088C46231180C06033961080A2D7EBF3817
:104F400030101112161D38912C0102040102FF02CB
:104F50005108112980C06070980C16224382060CFB
:104F6000183060C03800162430180C864321100811
:104F7000844221108CC860311A0C0603013FF03CBA
:104F800016236190380E2688C46231183871080AD9
:104F90002D7C9F1C18180808090E38912C0102045A
:104FA0000101CD0A36803808102AC0603028CC8E26
:104FB00013214183060C1830E038001425188C4664
:104FC000231108844221100881C62438090E0203E7
:104FD0003FC07C0E133148380F2584C22130080CA5
:104FE0003871080B2C708F0F0E0C04040405063862
:104FF000911B01023E03CD0404043580C0800812D9
:1050000029C04030101CA447891020418106049813
:10501000D060380014260C844321100884422110EB
:1050200088C463321C0C0603012808FC07091028F9
:1050300044C2380C286231183861080B2C708F0775
:105040000706060206020338911C0102040101CE84
:105050000632C04040C08008142580C06030100C6B
:105060009C634384081020418386CC78207000170D
:10507000266030180C86432110088442211088C411
:1050800062311A0C060301280AE0FF030408142207
:105090006190380A28183861080C2B7088070303C0
:1050A000020202030101389106CF01020404040F39
:1050B0003380C02060C0803808102630088C4A3306
:1050C00022448810204183864C3838480C603018C0
:1050D0008C42231008844221050527090602013865
:1050E0000AF0DF83040C122150883D0A270438514E
:1050F0003808708806030303010101351301020318
:10510000CF040408083280C0602060C080380811D5
:105110002A30180C864B3123408418204083C26CFF
:105120003838001227432110088442211088C462B5
:1051300031180D0603013809FCD782040C12A1D0E6
:10514000380A280C38414F708804020301010135E8
:1051500005D10102040408093180C060206040804C
:105160008038100A30188C066B1123408C12300DD9
:105170002AC1C664383814630118000E27864021FE
:105180001088C46231180D06030114FCD7832E0E5B
:10519000803190C8380A280C3831480870880402D9
:1051A00001030101013404D301020408083280C064
:1051B000602060408038100A30180CC60B31234440
:1051C000880F2A3001C1C66C3838130331000F270D
:1051D0000C8043201088C46231180D06030114FCB2
:1051E000D7823D0E10A1D0380A280C38214809700A
:1051F0008804020101030101013304D501020407FF
:1052000031C0402060C08008142580C06030180C78
:105210008C4B3123448810204183C66C38380017EA
:10522000274030100C84432110088442211088C488
:105230006231180D0603013809FCD782040C1221D3
:10524000D0380A280C381115708806022808010386
:10525000030301030101013103D701020F33804031
:10526000604080803808102910188C5623410408AB
:105270001020418286C8383800132784462111083F
:10528000844221100884C221310A0C0203180AFA50
:105290008F01040C22219088380B283008381560C3
:1052A00088040212011A03011C02020101013003E9
:1052B000D801020E3380C0C08080380811296030C8
:1052C000189C5663850810204183068CD8703800DE
:1052D00014268C462311100C8240211088C46330A0
:1052E0001E0C0603011809FC0F05081C2240A138FA
:1052F0000C2762311838157088060218090101025E
:105300000707070602010A26037081092D2F01AD48
:105310000C3480808038081129C0203018CC8609D0
:1053200011204182060818F04038081424088C42E5
:105330002310088442211008C54234180C070301C9
:105340003C1808FC0E03102844C2380F24C4423114
:10535000100C043815708804021809010102020FAC
:10536000070604010B2506067081092C2E01E708AB
:10537000112A80C06030588C16234183060C1830E7
:1053800060C038100A188C46231108840261000B93
:10539000241986C468311A0C0603012FF03C162329
:1053A0005188380F241880C6603118381570880667
:1053B00002080F25010102020E1F0E0C0808080D3D
:1053C00006047001FF011E08102A80C060B0181C7E
:1053D0002642820608182060C03800152430188C38
:1053E00006630118048241221488D061321C0C0625
:1053F000032EC0782C06E338180940211088C462B7
:105400003118380221011570080602080F23010126
:1054100002020C3F1D18101018191B0C3801FF0157
:1054200021080F2A80C0E030384C84040C1830600A
:10543000C0803810086030180CC60331000D250DEF
:1054400082442810A1C26438180C072CF0384C385C
:10545000000F200C8043201088C46231180C060312
:10546000011570080402080F23010102020C7F3DA0
:10547000302020213216193801FF0122080D2D801D
:10548000C0607098080818206080803800132530AC
:10549000188C4623110A048850214284C8703019A0
:1054A0000F1DE070980C3800101F08048241201076
:1054B00088C46231180C0603011530080402080F75
:1054C00023010102024C7F75604063402C64323836
:1054D00001FF0123080A3080C06030103020C080F6
:1054E0003808122910188C46231508916244881038
:1054F000A061231A0C3800111F21110884422110C9
:105500000884C22130080C03031510080402280F78
:1055100001010202CCFFE1C18285C8586442380A09
:105520001E023801FF012308093180C0602030606D
:10553000C0803808122930180CC627193122C488B7
:105540001020C1C3663C083800121E2311100C82C3
:1055500041211088C46231180C0703011510080698
:1055600002380E01020202FCFF8182068991B0C856
:10557000380A1E063801114A010101FFB10808313D
:1055800080C04060408080380812296030180C8E3E
:10559000532340840810204182C668383800131F06
:1055A00086432110088442211088C46231190E06F6
:1055B00003011408040217010102C2FF872E0C0424
:1055C000126190380B20180C38F12A03012A0101CE
:1055D00001FF910E3380C040C0803808112A60302E
:1055E000180C9663458810204183068CD8703800CB
:1055F000131FC62311100C8241211088C462311A76
:105600000C060301381008040201010202FE97058E
:10561000081C2241A1380A211838E11E030707039C
:1056200002010B2C03013801DB0D3480C08080386F
:105630000810292030189466458910204183068C73
:10564000D87038001421088C42231008844221109D
:1056500008C44233140C060301130402580B010161
:10566000FA2E0708182442A13D0B20040238B94441
:1056700008092107070606060202027001E70D3439
:1056800080C080803808102A603018AC4687091026
:10569000204183060C98703810098C462311088429
:1056A0000261000B2118844362141C0407010113DA
:1056B0000202180A01F23E0709182442A1380F21FC
:1056C000C26031180C0638B1080C2B040707060617
:1056D0000406020203033801DB0D3480C0808038E9
:1056E00008102A603018AC46870910204183060C48
:1056F00098703810098C46231108840261000B232E
:105700001880C662301C0C070301280B0202F03F10
:105710000709182442A1380E236031180C0638916D
:10572000080B2C040707060604060202033801DBF7
:105730000D3480C080803808102B6010188C6605EE
:105740008910204183060C98F0380012254621115B
:1057500008844221100884C222340C0C0303280A56
:1057600002F23E0709182442A1380E242130080C09
:10577000023881080A25040707060606020202709D
:1057800001E30D3380C0C0803808112A4020100882
:105790009C63478810204183068CD870384C844223
:1057A0002105000A2688C462311A0C060301380953
:1057B000F2BF0708182442A1380A281838810809BE
:1057C0002E07070706060202033801D90F3380C0EF
:1057D0006040C0803808112930188C0E732344882B
:1057E0001020418386CC78103800132646231108F8
:1057F000048241201088C46231190E060301280A70
:10580000E0FF83040C12216090380B27180C3881BC
:10581000080A2D03070707060703010138015D1574
:1058200040202008072F04080820204035804040F1
:1058300080120119D02903012C15E0380E0B130832
:10584000080D310B0E38E0B413FF011009207C84E1
:105850008286847C20043001FF502C81DFE0BA492D
:10586000C6042FE0DF810014351E0F040603023A40
:10587000FAE2E3FE3A020306040F1E1003BD03031F
:105880002580C0C080000B2C10284402400141023A
:10589000442816E0380E0B0907320809030E38E0D9
:1058A00014A0FF01100920F884840484F820043037
:1058B00001FF404402FFC03B01018B3ABF07012AB0
:1058C000001534101E0B0D05070672FAE2C2FA3AF3
:1058D0000207050D0F1C100C2D010F077A018F5BBD
:1058E00080800812405A400B0128100EC0701C1610
:1058F00013111013161C74CA091A0802032A090A84
:1059000014A0FE03100940F808080C08F840043001
:1059100003FE402402BFC02E01010301018B032EB0
:10592000BF02001534203C1E090D0704F4F4C484A2
:10593000F4F4040E0B091E3C2005BD073F1F0703AE
:105940003980801011C0701C0613011103161870E5
:10595000C0401010080C281040404E1420FE0310C8
:105960000940F018080818F0401503FE42021A0218
:1059700003012A24057FC01F0103020203018B0AD1
:10598000297F3A4100153440381E1B0B0E0CE4F4FD
:105990008484F4EC0C0E0B1B163C2005BD031F1F6A
:1059A0000303398080000D32C0701C1613111013D0
:1059B000161C70C014A0FE03100940F808080C085B
:1059C000F8401603FEC402820529840850201B02F9
:1059D000BF752E01010301018B032EBF020814289D
:1059E000203C1E090D070474F4C4C4F474040E0BA7
:1059F000091E3C7BB12C0107078001B9053880C026
:105A0000C08016E0380E0B0907320809030E38E093
:105A100014A0FF01100920F884840484F8201501E3
:105A2000FF9080092C894402FFC03B01018B14BF09
:105A3000111006271011021408001534101E0B0D4A
:105A400005070672FAE2C2FA3A0207050D0F1C10AA
:105A50003C010F078101B805388040408015E038CF
:105A60000E0B12080632080B0E38E01440FF01102E
:105A700009207C848286847C20043001FF507C8154
:105A8000DFE0BA1580E0FFA10D2810202080CC10A7
:105A9000141E0F040603027AFAE2C3FA7A0203061E
:105AA000040F1E14130404022F0105AC031F0F037F
:105AB00016A010100402200901010102041810A010
:105AC000052D80C0C080130101690216E1390E0B5B
:105AD000090F3108090B0E38E08A13FF0110092065
